:100000000C9404020C944B020C944B020C944B0283
:100010000C944B020C944B020C944B020C944B022C
:100020000C944B020C944B020C94231F0C94F51F60
:100030000C94AD170C944B020C944B020C944B0295
:100040000C944B020C944B020C944B020C944B02FC
:100050000C944B020C9415180C944B020C944B020C
:100060000C944B020C944B020C944B020C944B02DC
:100070000C944B020C944B020C944B020C944B02CC
:100080000C944B020C944B020C944B020C944B02BC
:100090000C944B020C944B020C944B020C944B02AC
:1000A0000C944B020C944B020C944B02120D120D4B
:1000B000240D240D1B0D240D240D240D120D120DE5
:1000C000200D240D240D200D610D610D950D950D54
:1000D000E50D030E6E0F6E0F450EEA0EFD0EFD0EC2
:1000E0005E0F6E0F6E0F670F622089207B218920C3
:1000F0007B21D520F8207B214E215D2114001A00A0
:100100000800150017001C0018000C001200130056
:1001100004441600070009000A000B000D000E0041
:100120000F002D431D001B000600190005001100E3
:100130001000360037003800E000E300E200E10084
:100140002A422C412800E600E40029001E001F007E
:100150002000210022002300240025002600270083
:100160002B000000000035002F0030003800330065
:1001700034002D000000000000000000000000001E
:100180000000010001000100010001000100010068
:100190000100000001000100010001003A003B00E5
:1001A0003C003D003E003F00400041004200430053
:1001B0002B0044004500000000000000000000008B
:1001C00000000000390046004700480000005300CE
:1001D000000000000000000001000100010001001B
:1001E00000000000000000000000000029000000E6
:1001F00000000000000049004B0052004E004C007F
:100200002B0000000000000000004A0050005100D8
:100210004F000000000000000000000000004D0042
:1002200000000000000000000100010001000100CA
:100230002A00000000000000000000002900F40077
:10024000F000F500F90000000000000000004C0084
:100250000000F200F100F300FA00000000000000CE
:10026000000000000000000000000000000000008E
:100270000000AA00A900A80001000100010001007F
:100280000000000000000000000000000403300037
:100290000000120350006100620069006C006500FC
:1002A0003400300000000E0350006100620069005D
:1002B0006C00650000000403090409023B00020110
:1002C00000A0FA0904000001030101000921110145
:1002D00000012240000705810308000A090401000B
:1002E000010300000009211101000122C0000705DF
:1002F000820320000A1201100100000008341200DD
:100300000001000102030105010902A101850209A2
:1003100001A100050919012905150025019505759B
:10032000018102950175038101050109300931152B
:1003300081257F95027508810609381581257F95ED
:100340000175088106050C0A38021581257F950183
:1003500075088106C0C005010980A10185031A81C5
:10036000002A830016010026030095017510810004
:10037000C0050C0901A10185041A01002A9C02167E
:100380000100269C02950175108100C00501090637
:10039000A1018505050719E029E715002501950844
:1003A000750181020507190029EF1500250195F057
:1003B000750181020508190129059505750191024C
:1003C000950175039101C005010906A101050719F1
:1003D000E029E71500250195087501810295017551
:1003E0000881010507190029FF150026FF00950661
:1003F0007508810005081901290595057501910207
:10040000950175039101C00011241FBECFEFDAE002
:10041000DEBFCDBF04B603FE27C0809112029091CB
:100420001302A0911402B09115028730904BA7409F
:10043000B04BD1F4109212021092130210921402D7
:100440001092150214BE84B7877F84BF0FB6F8944C
:10045000A895809160008861809360001092600090
:100460000FBEE0E0F8E3099511E0A0E0B1E0E2E4BE
:10047000F4E402C005900D92A232B107D9F722E050
:10048000A2E2B1E001C01D92A231B207E1F70E94E1
:10049000471C0C941F220C9400009C013A952115D6
:1004A0003F4138F5DC01AA27B270AC0144275470F3
:1004B0009C012227387094FF0FC090FF02C080E19A
:1004C00001C080E0AB2B09F08062452B09F080640D
:1004D000232B69F080680BC0892F8170AB2B09F04A
:1004E0008260452B09F08460232B09F08860FB01B2
:1004F00009940895CF93DF93EC01805E91090897EA
:1005000010F0209719F46CEC7CE002C06AED7CE0FE
:10051000CE010E944D028C2FDF91CF910C94BB0B2A
:10052000CF93DF93EC010E94850CCE01805E910990
:10053000089710F0209719F463ED7CE002C061EE9B
:100540007CE0CE01DF91CF910C944D02CF93DF93ED
:10055000EC010E947A02CE01DF91CF910C949002BF
:1005600081E0089581E008950C94B2021F93CF9327
:10057000DF9300D000D01F92CDB7DEB749835A83F6
:100580002091480189819A81211112C0662349F086
:100590000E94F114182F682F89819A810E94961465
:1005A00003C00E94C514182F69817A81812F04C06D
:1005B0000E94F11469817A810F900F900F900F9033
:1005C0000F90DF91CF911F910C94DF04FC014081CB
:1005D00051816281738184810C94B6020E94241639
:1005E000811102C00E94C4160E94DB080C94860789
:1005F0000C948907282F2F7041F0822F90E02A3029
:1006000010F44D9608950697089587E290E00895B6
:1006100008950C9408030C94090308950E94020D98
:100620000E940D032FEF84E39CE021508040904016
:10063000E1F700C0000087E797E7909301088093F7
:1006400000080C943B180F931F93CF93DF938C01FA
:100650000E94E602EC01B8010E94B402882309F46A
:10066000A4C1B801CE010E944F09882309F49DC19D
:10067000B801CE010E94F109882309F496C1C63160
:10068000FCE5DF0739F50E947115282FF8018281FA
:100690004091000150910101882379F02A7A91E07C
:1006A00009F490E090932201911102C069E201C027
:1006B00065E3CA010E9430170AC0809122018111AE
:1006C00002C069E201C065E3CA010E943B170E94B3
:1006D000C0156BC1C7318CE5D80708F03BC1C130EC
:1006E000ECE5DE0771F4F8018281882309F45DC12D
:1006F0008091C901982F909590FB80F98093C90152
:1007000054C1C230FCE5DF0708F413C1F80182814F
:10071000882309F411C10E942416811102C00E948D
:10072000C4160E9437169093040280930302C031CE
:10073000FCE5DF0709F4BFC008F03FC0C830ECE5B6
:10074000DE0709F496C0F0F4C4308CE5D80709F44C
:1007500083C068F4C230FCE5DF0709F473C0C3301E
:10076000DC4509F0DDC080910302826072C0C630B2
:10077000ECE5DE0709F46AC008F077C08091030257
:10078000886067C0CC308CE5D80709F481C058F484
:10079000CA30FCE5DF0709F470C008F075C080912D
:1007A0000302806856C0CE30ECE5DE0709F474C061
:1007B00008F07DC08091030289C0CB3F8CE5D8074B
:1007C00009F44DC008F5C331FCE5DF0709F47BC02F
:1007D00068F4C131ECE5DE0709F471C0C231DC45D3
:1007E00009F09EC0809103028F7733C0C5318CE53C
:1007F000D80709F472C008F486C0CA3FDC4509F086
:100800008FC0809104023EC0CF3F8CE5D80709F429
:100810005FC058F4CD3FFCE5DF0709F444C008F49D
:100820003FC08091040282602DC0C130EDE5DE073B
:1008300009F473C008F45DC0C230DD4509F070C032
:1008400080E06CC080910302816003C0809103024C
:1008500080618093030264C08091030211C0809183
:1008600004028260809304025BC080910302806274
:10087000F0CF809103028064ECCF80910302886006
:100880008460E7CF8160EECF809103028E7FE1CF5D
:10089000809103028D7FDDCF80910302877FD9CFC6
:1008A0008091040218C0809104028D7FDBCF80917B
:1008B00003028F7ECECF809103028F7DCACF8091BD
:1008C00003028F7BC6CF80910302877F8B7FC1CFCE
:1008D000809104028D7F8E7FC5CF8091030282FBC1
:1008E000222720F991E0922790FB82F990FB83F96F
:1008F000B0CF80910402982F909591708E7F892BB4
:1009000090FB81F9AFCF8091030287FB222720F96A
:1009100091E0922790FB87F99CCF81E00E94C61658
:1009200080910302909104020E9448160E94020DD9
:100930003CC0C115DC4539F0C801DF91CF911F9152
:100940000F910C94B002F8018281882371F10E940A
:100950000E032BC0CE3DECE5DE0739F4F8018281B1
:10096000882319F10E94C41620C0CF3DFCE5DF07A3
:10097000A8F4CC3D8CE5D80731F4F80182818823B6
:10098000A1F080E008C0CD3DDC45B1F6F8018281E0
:10099000882359F082E00E94E61C07C0CE018A5FDE
:1009A0009C45099708F4B2CEC7CF80E0DF91CF9184
:1009B0001F910F91089580E090E0089508959AE0C6
:1009C000799FF001112498E2899FE00DF11D112417
:1009D000E60FF11DEE0FFF1FE450FF4F859194913C
:1009E0000895880F991FFC01E457FD4F859194915C
:1009F0000895CF93DF930E94DF040E94AE06EC01BE
:100A0000811520E59207F0F5811530E4930708F091
:100A100024C1883E910500F5803E910508F09AC1F9
:100A2000883A910570F4853A910508F09FC08130AD
:100A3000910509F48FC108F440C1049708F08AC1F8
:100A40003CC18F3B910508F49CC0803C910508F4A3
:100A500034C1805C9109F4C0811540E2940758F4D8
:100A6000C11581E0D80708F075C1C03FD10508F471
:100A700024C1D0656FC1811520E3920708F0E4C05E
:100A80009F70DEC0811535E5930708F044C08115DD
:100A900044E5940708F0F8C0C11582E5D80708F5C9
:100AA000C11521E5D20708F0DBC08C2F837021E04F
:100AB00030E002C0220F331F8A95E2F73C68CE0176
:100AC00074E0969587957A95E1F78370382BCF700F
:100AD000C695C69580E2C89FE0011124C22BD32B96
:100AE00039C12C2F26952695CE0183709927C115E3
:100AF000D34508F0BAC040E2249F90011124C1E020
:100B0000D0E002C0CC0FDD1F8A95E2F72C2B3D2BE5
:100B1000E901DC681FC1811549E59407A0F4C115FE
:100B200088E5D80708F0B5C0C11526E5D20708F05A
:100B3000C4C08C2F0E9442078F71C82FD0E0DC2FD9
:100B4000CC27D06207C181153AE5930708F4A6C007
:100B500090568115904208F0B0C08D2F8F710E9481
:100B60004207DD27D0628F71D82BF4C0853A9105FA
:100B700009F4A6C0863A910509F0A5C0C2E8D0E400
:100B8000E9C0883A910509F4A1C0893A910509F4B0
:100B9000A0C08A3A910509F49FC08B3A910509F4E7
:100BA0009EC08C3A910509F49DC08B3B910509F4D8
:100BB0009CC08C3B910509F49BC08D3A910509F4CA
:100BC0009AC0803B910509F499C08E3A910509F4C9
:100BD00098C08F3A910509F497C0813B910509F4BB
:100BE00096C0823B910509F495C0833B910509F4B9
:100BF00094C0843B910509F493C0853B910509F4A9
:100C000092C0863B910509F491C0873B910509F498
:100C100090C0883B910509F48FC0893B910509F488
:100C20008EC08D3B910509F48DC08E3B910509F472
:100C30008CC08A3B910509F48BC0C0E0D4E48AC023
:100C40000E94F104EC0186C09927D3FF03C0EC0198
:100C5000D86C80C0EC01D06C7DC0DF70D06A7AC0E7
:100C6000DC2FCC27C16FD06A75C040E2249F900171
:100C70001124C1E0D0E002C0CC0FDD1F8A95E2F75D
:100C8000C22BD32BDA6866C0D82FCC27C46FD06AAA
:100C900061C0DC2FCC27C06FD06A5CC08F700E940F
:100CA000420794E0D695C7959A95E1F7CF70D0E0CA
:100CB000DC2FCC27D069C82B4DC0C0E0D0E04AC0A3
:100CC000C1E8D0E447C0C3E8D0E444C0C2EED4E4F5
:100CD00041C0C9EED4E43EC0CAEED4E43BC0C5EB8B
:100CE000D4E438C0C6EBD4E435C0C3EBD4E432C09E
:100CF000C4EBD4E42FC0C7EBD4E42CC0CCECD4E4D8
:100D000029C0CDECD4E426C0C3E8D5E423C0CAE8AA
:100D1000D5E420C0C2E9D5E41DC0C4E9D5E41AC0B9
:100D2000C1E2D6E417C0C3E2D6E414C0C4E2D6E4FC
:100D300011C0C5E2D6E40EC0C6E2D6E40BC0C7E2DD
:100D4000D6E408C0CFE6D4E405C0C0E7D4E402C0CE
:100D5000CAE2D6E4CE01DF91CF91089582389105A1
:100D600069F1B0F48133910509F46DC048F489321A
:100D7000910509F463C08A32910509F469C00895A8
:100D80008533910509F455C089339105B9F008956B
:100D9000833E910569F138F4803E9105B1F0823EC1
:100DA000910509F10895863E9105A9F1873E9105C7
:100DB000B9F1843E910509F064C023C0209103027B
:100DC00020FD4FC021FD4DC008958091030280FD9C
:100DD00044C08091040280FF44C08091030284FDDE
:100DE00042C083EE4DC08091030282FF38C0F5CF30
:100DF0008091030282FD33C08091040280FD31C0E6
:100E0000ECCF8091040281FF32C08091030284FD07
:100E10002AC087EE35C08091030283FF26C0F5CF3C
:100E20008091030283FD21C08091040281FD1FC0D7
:100E3000ECCF8091030285FD1CC01DC08091030290
:100E400085FD19C016C08091030286FD16C017C02B
:100E50008091030286FD13C010C089E311C082EEA9
:100E60000FC080EE0DC080E00BC086EE09C084EE9E
:100E700007C089E205C085E303C08AE201C081E3BF
:100E800090E008959091030292FF0DC0282F2871E1
:100E9000283019F4877F846006C0282F24712430FD
:100EA00011F48B7F886093FF0DC0282F28712831A3
:100EB00019F4877E846106C0282F2471243111F42F
:100EC0008B7E88612091040220FF0DC0382F38717D
:100ED000383019F4877F816006C0382F3171313086
:100EE00011F48E7F886021FF0DC0282F28712831D2
:100EF00019F4877E816106C0282F2171213111F4F8
:100F00008E7E886194FD877E089508950C948507F0
:100F100008950C948807E82FF0E0EE0FFF1FED5DB9
:100F2000FE4F8081918108950895ADE1B1E041E0E7
:100F300050E024E02A0F8D91E82FE295EF70F0E069
:100F400031A18F70BA0102C0660F771F8A95E2F750
:100F5000CB01962F9095932391A392A1892B82A3E5
:100F60002A13E9CFA3E1B1E041E050E02AE02A0FE3
:100F70008D91E82FE295EF70F0E031A18F70BA010A
:100F800002C0660F771F8A95E2F7CB01962F9095E6
:100F9000932391A392A1892B82A32A13E9CF1092C4
:100FA0002C0110922B011092240110922301109217
:100FB0002E0110922D0110922601109225011092FF
:100FC000300110922F0110922801109227011092E7
:100FD00032011092310110922A011092290184E00D
:100FE0000E948B080C94EE025F926F927F928F9218
:100FF0009F92AF92BF92CF92DF92EF92FF920F93A8
:101000001F93CF93DF930DE111E0ABE2B1E0612CD0
:10101000EE24E394F12C5D018D909C901197119634
:101020001C921E92E80189918E01E82FE295EF70E3
:10103000F0E091A18F70A70101C0440F8A95EAF7F3
:10104000892F842B81A382A1542E5094852182A3C1
:10105000D0EADA95F1F783E1C82E81E0D82E80E05E
:1010600090E0E60179906E01272D22952F7030E0F7
:10107000E90168A12D913C91119770E0D72DDF70A7
:1010800002C075956795DA95E2F760FD08C0B70173
:10109000082E02C0660F771F0A94E2F702C060E0D4
:1010A00070E0262B372B11963C932E9301968A30B5
:1010B0009105B9F681A1D52DD823D1A382A1482BC2
:1010C00042A3129681E0F5012081318182169306B8
:1010D00009F480E0682AF1E0A333BF0709F09BCF51
:1010E000262D44E063E271E08BE291E00E948C08DF
:1010F0000E94F802862DDF91CF911F910F91FF90F2
:10110000EF90DF90CF90BF90AF909F908F907F90A7
:101110006F905F9008950895FF920F931F93CF9360
:10112000DF93F82E092F162FD72FC42F222349F033
:1011300081E0809335010E94DF1790933401809302
:101140003301809135018823D9F08091330190914A
:1011500034010E94EB17069798F0EF2DF02FA12F86
:10116000BD2F80E090E04C2F50E08417950734F4B9
:10117000219131912D933D930196F7CF1092350136
:10118000DF91CF911F910F91FF900895CF93DF933F
:1011900097FF0DC0FB012281222349F0EC010E9440
:1011A000F108CE019F770E9432090E941B0981E05D
:1011B000DF91CF9108958CE090E00E94DD2190E0D6
:1011C000A0E0B0E08093F8019093F901A093FA01B8
:1011D000B093FB0108956091F8018CE090E00C94CD
:1011E000EB210E9471158093FC010E94841580916F
:1011F000F801813071F048F0823081F08430A1F440
:1012000086EE0E94B90C88E10DC082EE0E94BB0BF5
:101210000BC088E193E00E94A60206C082EE0E9405
:10122000BB0B87E50E94B90C8FE39CE90197F1F7AE
:1012300000C0000008958091F801813039F040F03D
:10124000823031F0843051F488E206C08CE204C070
:1012500082EE0E94850C02C00E94B90C8091FC01B4
:101260000C9481150F931F93CF93DF938C01CCE0E7
:10127000D0E0C8010C2E02C0969587950A94E2F73B
:101280008F700E94FA020E94B90C2497CC3F8FEF16
:10129000D80779F7DF91CF911F910F9108950F93A0
:1012A0001F93CF93DF93EC018B01FB018281882395
:1012B00019F1C33EFCE5DF07C1F050F4C13EECE597
:1012C000DE0781F0C23EFCE5DF07B1F481E010C02B
:1012D000C43E8CE5D80759F0C53EECE5DE0761F465
:1012E00084E006C01092F80105C082E001C083E0EE
:1012F0008093F8010E94EB08B801CE01DF91CF91F5
:101300001F910F910C94C6080F931F93CF93DF93F7
:10131000C62FD42F022FFC0182818823C9F060934D
:1013200038010E94DF17909337018093360180E2E5
:101330008C0F883008F050C0C77081E001C0880F62
:10134000CA95EAF7DF91CF911F910F910C94CC0CC5
:1013500010913801161330C08091360190913701F9
:101360000E94EB17883C910538F5C0E2CD0F1D17A0
:10137000B9F080E2810F883040F4177081E001C03D
:10138000880F1A95EAF70E94D30CC83048F481E020
:101390009D2F977001C0880F9A95EAF70E94CC0C98
:1013A000802F0E94B90CC830B8F4D77081E001C01A
:1013B000880FDA95EAF70AC080E28C0F883060F473
:1013C000C77081E001C0880FCA95EAF7DF91CF911D
:1013D0001F910F910C94D30CDF91CF911F910F911E
:1013E00008959C01CB01233F4CE53407F9F078F4D4
:1013F000283DFCE53F07B9F0293D4CE5340711F1E4
:10140000273D3C4531F526E241EE61EE1EC0253F09
:10141000FCE53F0799F070F0263F3C45D1F427E208
:1014200045EE66EE12C027E245EE0EC026E241EE22
:1014300060EE0BC027E245EE64EE07C026E241EE07
:1014400062EE03C028E241E065EE0E94840980E07C
:101450000895FC018281882319F0109238010895C3
:1014600081E0089590933E0180933D010895E091BD
:101470003D01F0913E01309721F00190F081E02D87
:10148000099480E00895E0913D01F0913E0130978C
:1014900099F020911201222359F02091030227FF95
:1014A00007C0DC012C9111962C93119725E02C9309
:1014B0000280F381E02D09940895E0913D01F091BF
:1014C0003E01309739F022E0DC012C930480F58155
:1014D000E02D0994089520913B0130913C01821741
:1014E000930771F090933C0180933B01E0913D01A3
:1014F000F0913E01309721F00680F781E02D0994AC
:1015000008952091390130913A018217930771F0C3
:1015100090933A0180933901E0913D01F0913E01B1
:10152000309721F00084F185E02D0994089585B766
:10153000806885BF85B7806885BF08950895089540
:101540000C949F0A08950C94A20A0E94970A0E9484
:101550009E0A0C94A00A81E008950E94D6170E946A
:1015600095070E944C180C94A30A4F925F927F92A9
:101570008F929F92AF92BF92CF92DF92EF92FF92A3
:101580000F931F93CF93DF93CDB7DEB72A970FB694
:10159000F894DEBF0FBECDBF0E94F4070E94AB0AD5
:1015A000811111C08FEF89838A831B820E94DF170C
:1015B0008160782F9D838C8349815A816B818D81D5
:1015C0000E94730B57C090E4C92E91E0D92E00E021
:1015D00010E0AA24A394B12C702E802F0E948B07B8
:1015E0004C01F601419051906F0148265926411453
:1015F000510431F40F5F1F4F0430110569F7D2CF4A
:101600008091C90181FD0E94940720E030E07501BE
:10161000022E02C0EE0CFF1C0A94E2F7C7018421DF
:101620009521892B09F12E837F828E209F2091E0C6
:10163000892809F490E098870E94DF178160782F4D
:101640009A8789874E815F8168858A850E94730B9E
:10165000000F111FF801E05CFE4F80819181E826A8
:10166000F926F182E08206C02F5F3F4F2A30310514
:1016700071F6C0CF0E94DE1910913F010E94370A17
:101680001817D9F00E94370A80933F012A960FB6A7
:10169000F894DEBF0FBECDBFDF91CF911F910F91A8
:1016A000FF90EF90DF90CF90BF90AF909F908F9082
:1016B0007F905F904F900C940B032A960FB6F8948E
:1016C000DEBF0FBECDBFDF91CF911F910F91FF9075
:1016D000EF90DF90CF90BF90AF909F908F907F90D2
:1016E0005F904F900895CF93DF93CDB7DEB72B97E0
:1016F0000FB6F894DEBF0FBECDBF942F4F83252FBA
:10170000588769877A878B874A855B85452B21F0C7
:101710002F3F09F59F3FF9F4DE01119686E0FD01A8
:1017200011928A95E9F785E0FE01379601900D92B6
:101730008A95E1F749815A816B817C818D819E81F7
:101740000E9466122B960FB6F894DEBF0FBECDBF77
:10175000DF91CF9108958091490190914A010196BE
:1017600090934A0180934901D7CFFC0180819181F8
:101770000E9432150895882309F4C6C09CEF980F83
:10178000913A40F4682F80910001909101010E94EC
:1017900030170DC090E2980F983058F4877091E0A0
:1017A00001C0990F8A95EAF7892F0E9474150C944D
:1017B000C0159BE5980F933070F4853A29F0863A6E
:1017C00031F083E890E005C081E890E002C082E853
:1017D00090E00C946B0A98E5980F973108F08EC052
:1017E000883A09F445C0893A09F445C08A3A09F4AF
:1017F00045C08B3A09F445C08C3A09F445C08B3B8F
:1018000009F445C08C3B09F445C08D3A09F445C044
:10181000803B09F445C08E3A09F445C08F3A09F47B
:1018200045C0813B09F445C0823B09F445C0833B78
:1018300009F445C0843B09F445C0853B09F445C023
:10184000863B09F445C0873B09F445C0883B09F451
:1018500045C0893B09F445C08D3B09F445C08E3B2A
:1018600009F445C08A3B09F445C080E090E044C0DB
:1018700082EE90E041C089EE90E03EC08AEE90E0BA
:101880003BC085EB90E038C086EB90E035C083EB41
:1018900090E032C084EB90E02FC087EB90E02CC04A
:1018A0008CEC90E029C08DEC90E026C083E891E0BC
:1018B00023C08AE891E020C082E991E01DC084E95C
:1018C00091E01AC081E292E017C083E292E014C076
:1018D00084E292E011C085E292E00EC086E292E0DE
:1018E0000BC087E292E008C08FE690E005C080E779
:1018F00090E002C08AE292E00C94810A803F20F0DE
:101900000E94E6180C94D3190895882389F19CEF5E
:10191000980F913A40F4682F809100019091010155
:101920000E943B170DC090E2980F983058F48770D2
:1019300091E001C0990F8A95EAF7892F0E947A15E4
:101940000C94C0159BE5980F933020F480E090E054
:101950000C946B0A98E5980F973120F480E090E0A2
:101960000C94810A803F20F00E944E190C94D319E8
:101970000895CF93C82F0E94BB0BC93349F42FEFB2
:1019800087EE93E0215080409040E1F700C00000D6
:101990008C2FCF910C94850C882321F00E94741514
:1019A0000C94C0150895882321F00E947A150C9498
:1019B000C0150895882321F00E9487150C94C01546
:1019C0000895882321F00E948D150C94C015089568
:1019D0000E9494150E94A4150E94C0150E94791AB5
:1019E0000E94D31980E090E00E946B0A80E090E0B2
:1019F0000C94810A80910001909101010E94461788
:101A00000C94E80C0E9484150C94FA0CE92FE295D2
:101A1000EF70F0E03297EE30F105B0F4EA5AFF4F84
:101A20000C94C321803F91F018F4883E68F40EC0F6
:101A3000843F51F40BC0883E48F0813F29F406C032
:101A400093FB882780F9089580E0089581E0089548
:101A50000E9432150E94060D08958F929F92AF92B8
:101A6000BF92CF92DF92EF92FF920F931F93CF938B
:101A7000DF936C01EB01FC01058102950F7012816F
:101A800011110E9494150E946A15882379F0112380
:101A900069F080E28C0F883048F082E00E940B16DB
:101AA0000E946A1591E0E82EE92601C0E12CAD2ED6
:101AB000A2942FE0A222B12CF501EC59FF4F0C9417
:101AC000C3219D2F9F708D2F807FF92E19F0F294E6
:101AD00090EFF922112399F0FF2009F4DAC180E296
:101AE0008C0F883010F0C11104C08F2D0E94741526
:101AF00003C08F2D0E9487150E94C015CAC18C2F6C
:101B00000E94850CFF2009F4E9C180E28C0F883027
:101B100010F0C11104C08F2D0E947A1503C08F2DC3
:101B20000E948D150E94C015D9C19D2F9F708D2FC9
:101B3000807FF92E803219F0F29480EFF822CC23C6
:101B400019F0C130C9F022C0112371F0002341F017
:101B5000013031F40E94A7158F290E94AD15BEC136
:101B60000E94A7158F291DC0002319F0013009F428
:101B7000B5C10E94B61525C0112321F0063008F02A
:101B8000ADC10EC0053008F0A9C11BC0112361F022
:101B9000002331F0F601858180FF7BC18F70858342
:101BA0008F2D0E94CC0C9AC1002359F0C93309F043
:101BB00081C1FFEF27EE83E0F15020408040E1F744
:101BC00077C18F2D0E94D30C89C18D2F8695869564
:101BD000837090E0009719F0019759F07FC11123AD
:101BE00019F0CE01937002C080E090E00E946B0A71
:101BF00080C1112319F0CE01937002C080E090E003
:101C00000E94810A76C11123F9F0C53F51F0C63F09
:101C100071F0C43FA9F48091FD019091FE018160B3
:101C20000BC08091FD019091FE01826005C0809102
:101C3000FD019091FE0184609093FE018093FD016F
:101C40008C2F0E94E6181EC0C53F51F0C63F71F0B0
:101C5000C43FA9F48091FD019091FE018E7F0BC0DD
:101C60008091FD019091FE018D7F05C08091FD0165
:101C70009091FE018B7F9093FE018093FD018C2F4C
:101C80000E944E190E94D31934C18D2F837009F020
:101C90004DC011112AC12C2F229526952770220F95
:101CA000220F6C2F6F70862F90E0A0E0B0E0022E24
:101CB00004C0880F991FAA1FBB1F0A94D2F7C4FF44
:101CC00010C04FE050E060E070E004C0440F551FCA
:101CD000661F771F2A95D2F74095509560957095AD
:101CE00003C040E050E0BA012D2F269526952370C1
:101CF00030E04A015B01882A992AAA2ABB2AC50139
:101D0000B4012230310561F02330310561F021301A
:101D1000310519F00E94AB13E8C00E949913E5C089
:101D20000E94BD13E2C00E949713DFC0112319F077
:101D30008D2F817001C08695882309F4D6C02C2F81
:101D4000229526952770220F220F6C2F6F70862FF9
:101D500090E0A0E0B0E0022E04C0880F991FAA1FF7
:101D6000BB1F0A94D2F7C4FF10C04FE050E060E000
:101D700070E004C0440F551F661F771F2A95D2F7E5
:101D8000409550956095709503C040E050E0BA01D1
:101D90002D2F26952695237030E04A015B01882A75
:101DA000992AAA2ABB2AC501B4012230310561F063
:101DB0002330310561F02130310519F00E94711492
:101DC00094C00E945F1491C00E9483148EC00E9430
:101DD000D2138BC02D2F2F70F22E112339F0822FAA
:101DE0000E94F8138C2F0E94CC0C7FC08C2F0E9475
:101DF000D30C8F2D0E94191478C0C23F01F128F432
:101E0000C03F41F0C13FA1F040C0C33FF9F0C43F23
:101E100039F13BC0112341F0053008F05FC08D2F30
:101E20008F710E943E145AC0063008F057C0F7CF99
:101E3000112339F08D2F8F710E94F8134FC0112399
:101E4000C9F38D2F8F710E94191448C0112329F0F6
:101E50008D2F8F710E94E31341C00E94DE133EC09C
:101E6000112351F08D2F8F71F82E0E94F81363E02B
:101E70008F2D0E94F61532C081E00E940B160230B1
:101E800068F182E00E940B1629C0112331F0002373
:101E900089F28C2F0E94BB0B21C0002391F2C93321
:101EA00049F49FEFE7EEF3E09150E040F040E1F7B6
:101EB00000C000008C2F0E94850C10C04D2F4F7069
:101EC0006C2FC6010E94DB040E940A1312C04D2F22
:101ED0004F706C2FC6010E94DE040BC028E0A21ACE
:101EE000B10884E0A816B10420F40E94370A0E94C9
:101EF0000B03CE010E94060D811105C010924A010C
:101F00001092490111C0112319F00111F7CF0CC033
:101F10000111F4CF8091490190914A01029771F724
:101F20008C2F0E94B90CEACFEE20E9F00E946615D2
:101F300080FD19C0F60112820E9460150E94F813FC
:101F4000C6010E94C00F0E946015DF91CF911F91C2
:101F50000F91FF90EF90DF90CF90BF90AF909F9048
:101F60008F900C941914DF91CF911F910F91FF90D6
:101F7000EF90DF90CF90BF90AF909F908F9008959B
:101F80000F931F93CF93DF93EC01888199812B816D
:101F90003C81232BB9F09F3F11F48F3F99F0CE0184
:101FA0000E942303882371F0688179818A810E94CD
:101FB0003D158C010E9495140E949613B801CE0124
:101FC0000E942D0DDF91CF911F910F910895CF9316
:101FD000DF9300D000D01F92CDB7DEB70F900F90E7
:101FE0000F900F900F90DF91CF910895CF93DF93D3
:101FF00000D000D000D0CDB7DEB726960FB6F8944B
:10200000DEBF0FBECDBFDF91CF9108951F93CF9359
:10201000DF93C0914B0116E080914C01C81799F0F5
:10202000D0E01C9FF0011D9FF00D1124E35BFE4FDB
:102030004081518162817381848195810E94F60F74
:102040002196C770E9CFDF91CF911F9108954091FC
:102050007D0150917E0160917F017091800180919E
:102060008101909182010C94F60F809182018295FA
:102070008F7009F054C080917F01882309F44FC00C
:1020800080914B01A0914C0160917D0170917E0186
:102090004091800150918101B6E08A1709F43FC058
:1020A00090E041155105C1F17F3F11F46F3FA1F15F
:1020B000B89FF001B99FF00D1124E35BFE4F218121
:1020C00072132AC02081621327C02281211124C0EB
:1020D000238134812417350710F421503109241B42
:1020E000350B283C3105C0F4209182012F7020610E
:1020F0002093820126E0289FF001299FF00D1124F2
:10210000EE5AFE4F80818F70806180838DE791E071
:102110000E94C00F0C94061001968770BECF0895E0
:10212000CF92DF92EF92FF920F931F93CF93DF93A3
:10213000CDB7DEB762970FB6F894DEBF0FBECDBF46
:102140008C0185E0F801DE011D9601900D928A95C3
:10215000E1F7D8014C9111965C91119712966C9110
:1021600012971396CD90DC90149730917D01709169
:102170007E018091800190918101009709F46BC1EB
:102180007F3F19F43F3F09F466C1E0907F01EE20E4
:1021900009F4C0C020918201C816D90628F0F601C2
:1021A000E81BF90BCF0104C0809590958C0D9D1D07
:1021B000FF24F394883C910578F0F12C207F09F0FE
:1021C000C6C07C2DD98AC88A89890E94E70F8DE70D
:1021D00091E00E94C00FB1C0822F807F09F046C0FD
:1021E000751314C0341312C0611110C02F70206118
:1021F000209382010E9427108DE791E00E94C00F7A
:1022000080918201D80115968C932EC0CD2819F1AA
:102210005F3F11F44F3FF9F0F62E61111CC0809121
:102220004B0120914C0136E0821709F45AC090E02E
:10223000389FF001399FF00D1124E35BFE4F71814F
:10224000571306C07081471303C07281711103C018
:1022500001968770E9CFF62E662309F427C1809195
:102260008201816080938201F12C20C1751308C026
:10227000341306C0611104C080918201D801C3C02B
:102280004D875E878D859E856A8B0E94280D6A89A1
:102290008823E1F16623D1F120918201822F82957A
:1022A0008F7090E0029774F080917D0190917E0193
:1022B00098878F831986DB86CA862C87CE0107967E
:1022C0000E94C00F86E0F801ADE7B1E001900D92E9
:1022D0008A95E1F70E9435100E942710FF24F3949D
:1022E000E5C04D875E878D859E850E943215292F1A
:1022F00022952F7030E0223031050CF0CBC09F705A
:1023000009F0C5C0805E883008F4D0C0C8010E94C2
:10231000C00FE4CFC816D90608F453C0F601E81B75
:10232000F90BCF01883C910508F450C0F12C7C2DAD
:10233000D98AC88A89890E94E70FEDE7F1E086E033
:10234000DF011D928A95E9F70E942710AFC075132F
:1023500014C0341312C0611110C080918201F801C1
:102360008583C8010E94C00F86E0EDE7F1E0DF0140
:102370001D928A95E9F7FE2C99C04D875E878D8561
:102380009E856A8B0E94280D6A89882309F4BECF36
:10239000662309F4BBCF20918201822F82958F7032
:1023A00090E002970CF48ECF80917D0190917E0198
:1023B0009A8389831B82DD82CC822E83CE01019693
:1023C0007FCF809590958C0D9D1DACCFF62E66230A
:1023D00009F49CCF75132EC034132CC020918201B8
:1023E00020FD1FC0822F82958F70D9F0D8011596DD
:1023F0002C9315978F3049F08F5F982F9295907F8F
:10240000822F8F70892B15968C93C8010E94C00F64
:1024100086E0F801ADE7B1E001900D928A95E1F711
:1024200093CF86E0F801ADE7B1E001900D928A9577
:10243000E1F73CC04D875E878D859E850E94280D03
:10244000811140CF80918201816080938201C80117
:102450000E94C00F2BC0662309F458CF4D875E87BA
:102460008D859E850E94280DF82E882309F44ECF75
:1024700086E0F801ADE7B1E001900D928A95E1F7B1
:102480008DE791E00E94B50B0E9435105DCF811160
:1024900039CF0CC0243031050CF038CF9F7009F4CF
:1024A00031CFF8019581907F09F02CCF8F2D629666
:1024B0000FB6F894DEBF0FBECDBFDF91CF911F9155
:1024C0000F91FF90EF90DF90CF9008951F93CF93DF
:1024D000DF93CDB7DEB72C970FB6F894DEBF0FBEF3
:1024E000CDBF4F83588769877A878B879C87CE01BA
:1024F00007960E949010882369F08F8198852A851D
:102500003B85232BF1F19F3F09F063C08F3F09F01A
:1025100060C037C086E0FE013796DE01119601905B
:102520000D928A95E1F76F817885EA85FB85309772
:1025300041F17F3F11F46F3F21F120914C0130E0D8
:10254000C90101968770992740914B0150E084178B
:10255000950709F447C069837A83FD83EC8396E08D
:10256000929FD001939FB00D1124A35BBE4FFE013B
:10257000319601900D929A95E1F780934C010E945B
:10258000061016E080914B0190914C018917C1F122
:10259000189FC0011124835B9E4F0E9490108823D6
:1025A00079F1E0914B011E9FF0011124E35BFE4F96
:1025B0004081518162817381848195810E94F60FEF
:1025C00080914B0190E001968770992780934B0191
:1025D000D9CF4F81588569857A858B859C850E94E6
:1025E000F60FCFCF0E94020D10924C0110924B01BA
:1025F000EDE7F1E086E0DF011D928A95E9F7C1CFB2
:102600002C960FB6F894DEBF0FBECDBFDF91CF91F1
:102610001F910895EF92FF920F931F93CF93DF9333
:102620008C01892B09F46CC0F12CEE24E394E801B1
:102630002196F8018491843740F4843008F051C029
:10264000813081F0823019F15BC0853709F444C0D4
:10265000A8F19CE7980F903708F052C08F770E943E
:10266000850C41C00E5F1F4FFE01C49180E28C0FAC
:10267000883048F4C7708E2D01C0880FCA95EAF7DC
:102680000E94971514C08C2F0E94BB0B2DC00E5FAB
:102690001F4FFE01C49180E28C0F883058F4C77040
:1026A0008E2D01C0880FCA95EAF70E949D150E94E1
:1026B000C0151AC08C2F0E94850C16C00E5F1F4FCC
:1026C000FE01C491CC2381F08FE99FE00197F1F7DF
:1026D00000C00000C150F6CF0E5F1F4FFE01F49006
:1026E00003C00E94BB0B8E018F2D882309F49FCF5E
:1026F000EFE9FFE03197F1F700C000008150F5CF1E
:10270000DF91CF911F910F91FF90EF900895089561
:102710000C9487130E9488136093A0017093A10109
:102720008093A2019093A3010C94E80C08950C945B
:102730008A130F931F930091A0011091A101209182
:10274000A2013091A301602B712B822B932B1F913F
:102750000F910C948A130F931F930091A001109175
:10276000A1012091A2013091A30160237123822352
:1027700093231F910F910C948A130F931F93009131
:10278000A0011091A1012091A2013091A301602725
:102790007127822793271F910F910C948A13089514
:1027A0000C94CF130E94D01360939C0170939D01F1
:1027B00080939E0190939F010C94E80C60E070E080
:1027C000CB010C94D2130F931F9341E050E060E0D3
:1027D00070E08A019B0104C0000F111F221F331FEC
:1027E0008A95D2F7C901B8011F910F910C94D213A9
:1027F0000F931F9341E050E060E070E004C0440F8D
:10280000551F661F771F8A95D2F780919C01909182
:102810009D01A0919E01B0919F018A019B01082B0F
:10282000192B2A2B3B2BC901B8011F910F910C9436
:10283000D2130F931F9341E050E060E070E004C0BA
:10284000440F551F661F771F8A95D2F74095509504
:102850006095709580919C0190919D01A0919E0141
:10286000B0919F018A019B01082319232A233B234E
:10287000C901B8011F910F910C94D2130F931F93AC
:1028800041E050E060E070E004C0440F551F661F57
:10289000771F8A95D2F780919C0190919D01A0911C
:1028A0009E01B0919F018A019B01082719272A27C1
:1028B0003B27C901B8011F910F910C94D2130F93BC
:1028C0001F9300919C0110919D0120919E013091D8
:1028D0009F01602B712B822B932B1F910F910C94D6
:1028E000D2130F931F9300919C0110919D01209191
:1028F0009E0130919F0160237123822393231F91B6
:102900000F910C94D2130F931F9300919C0110917F
:102910009D0120919E0130919F01602771278227A0
:1029200093271F910F910C94D21308952AE0929F40
:10293000800D1124A82FA695A695A695877051E025
:1029400001C0550F8A95EAF785E0A89FD0011124B0
:1029500020E030E070E0F901EA0FFB1FED57FE4F79
:102960004081CB01022E02C0969587950A94E2F72A
:1029700081709927819584278523842780832F5F01
:102980003F4F2530310539F708952AE0929F800D99
:102990001124682F669566956695982F977085E047
:1029A000689FB001112440E050E080E0FA01E60F9A
:1029B000F71FED57FE4F208130E0092E02C03695FB
:1029C00027950A94E2F721703327042E01C0220FC5
:1029D0000A94EAF7822B4F5F5F4F4530510531F77C
:1029E0000895BF92CF92DF92EF92FF920F931F93C1
:1029F000CF93DF938C01C090A001D090A101E09013
:102A0000A201F090A30180919C0190919D01A09161
:102A10009E01B0919F01C82AD92AEA2AFB2ACFE158
:102A2000D0E0D701C6010C2E04C0B695A7959795A6
:102A300087950A94D2F780FF07C0BC2EB8018C2F6F
:102A40000E94F904019719F4219758F7B12C8B2DA6
:102A5000DF91CF911F910F91FF90EF90DF90CF907A
:102A6000BF900895CF93DF93EC010E94F114BE0153
:102A70000E94F904DF91CF9108951F93CF93DF93C4
:102A8000EB0190914801992321F0CB010E9432156E
:102A900013C0882349F0CB010E94F114182F682F2E
:102AA000CE010E94961404C0CB010E94C514182FB9
:102AB000BE01812F0E94F904DF91CF911F910895EB
:102AC0008091A40185958595859508958091A401AF
:102AD000877008959091A401977081E009F480E0D7
:102AE00008958091C80108959091C801892B809321
:102AF000C801089580959091C80189238093C801E9
:102B000008958093C80108951092C8010895909186
:102B1000C701892B8093C701089580959091C701C3
:102B200089238093C70108951092C7010895909159
:102B3000C601892B8093C601089580959091C601A6
:102B400089238093C60108951092C601089580914B
:102B5000A501089508950C94AA159091A5019817C0
:102B600021F08093A5010C94AB1508958091A501E7
:102B7000882329F01092A50180E00C94AB150895EC
:102B8000E0910001F09101018091C8018083E09102
:102B90000001F091010190818091C701892B808310
:102BA000E0910001F091010190818091C601892B93
:102BB00080838091A501882381F0E0910001F0914C
:102BC00001019081892B8083809100019091010106
:102BD0000E94CB1681110E94B61580910001909140
:102BE00001010C94430A08950C94F31598E0899F11
:102BF00090011124262B2093A4010E94F8138091A8
:102C0000A4018595859585950C94F4151092A401E1
:102C100080E00C94F4152091A40180958223809388
:102C2000A401982F977079F430E0482F082E000CFB
:102C3000550B2417350739F08595859585950E94A4
:102C400019140C940616089580E090E00E94E52186
:102C500021E08C3E9E4F09F020E0822F089582E013
:102C600090E00C94DD2183E090E00C94DD21CF9383
:102C700084E090E00E94DD21C82F81E290E00E9474
:102C8000DD212C2F30E0A901582BCA01CF910895E6
:102C9000CF93C92F682F84E090E00E94EB216C2F26
:102CA00081E290E0CF910C94EB21AB01BC018FE06D
:102CB00090E00C94FD21AB01BC0183E190E00C9409
:102CC000FD2160E070E0CB010C945B1660E070E0E9
:102CD000CB010E9455160C9461166CEE7EEF80E0DD
:102CE00090E00E94092260E082E090E00E94EB21E7
:102CF00060E083E090E00E94EB211092A00110922E
:102D0000A1011092A2011092A30160E084E090E082
:102D10000E94EB2160E081E290E00E94EB2160E004
:102D200085E090E00E94EB2160E086E090E00E9468
:102D3000EB216FEF87E090E00E94EB2140E050E054
:102D4000BA0188E090E00E94FD2160E08DE090E013
:102D50000E94EB2140E050E0BA0188E190E00E943F
:102D6000FD2160E087E190E00E94EB2140E050E02F
:102D7000BA018CE190E00E94FD2160E080E290E0E9
:102D80000E94EB210C9466160C946D16682F8EE051
:102D900090E00C94EB21FC01329680911201882383
:102DA00031F08091030287FF02C09EE101C096E0EE
:102DB00080E0915028F021912223D9F38F5FF9CF41
:102DC00008959C01FC0132969FEF80E041914617E7
:102DD00089F09F3F19F4411101C0982F8F5F863011
:102DE000A9F79F3F39F0F901E90FF11D97FDFA9519
:102DF000628308950895FC01329608962081261377
:102E000001C010823196E817F907C1F70895262FFF
:102E10002695269526952E3168F4FC01E20FF11DCA
:102E2000677021E030E001C0220F6A95EAF78281E5
:102E3000282B22830895262F2695269526952E3118
:102E400070F4FC01E20FF11D677021E030E001C079
:102E5000220F6A95EAF7209582812823228308951C
:102E600020911201222329F02091030227FD0C94C6
:102E700007170C94E11620911201222329F02091CA
:102E8000030227FD0C941B170C94FB1620911201D2
:102E9000FC013296222331F08091030287FF02C0A9
:102EA0008EE101C086E0DF011D928A95E9F7089561
:102EB00008950C9458170E94591780910902843084
:102EC00049F11092CA0120E488E190E00FB6F8942D
:102ED000A895809360000FBE2093600080E00E9460
:102EE0000B030E94591783B7817F846083BF83B728
:102EF000816083BF7894889583B78E7F83BF0FB638
:102F0000F894A89580916000886180936000109289
:102F100060000FBE089508950895CF930E948B1707
:102F20000E94F4070E948C17C0E08C2F0E948B0730
:102F3000892B29F4CF5FC430C1F780E001C081E064
:102F4000CF91089508950C94A2170E94020D0E943B
:102F5000370A0E940B030C94A3171F920F920FB60F
:102F60000F9211248F939F93AF93BF938091CA01C7
:102F7000811113C08091FF0190910002A091010284
:102F8000B09102024196A11DB11D8093FF01909363
:102F90000002A0930102B0930202BF91AF919F91F2
:102FA0008F910F900FBE0F901F90189582E084BDF7
:102FB00093E095BD9AEF97BD80936E0008952FB76B
:102FC000F8948091FF0190910002A0910102B091CC
:102FD00002022FBF0895CF92DF92EF92FF920F93DC
:102FE0001F932FB7F8944091FF0150910002609118
:102FF0000102709102022FBF6A017B01EE24FF24BF
:103000008C0120E030E0C016D106E206F30610F491
:10301000415051099A01281B390BC9011F910F9189
:10302000FF90EF90DF90CF90089578941F920F92C9
:103030000FB60F9211248F939F93AF93BF938091FC
:10304000FF0190910002A0910102B091020201964D
:10305000A11DB11D8093FF0190930002A093010276
:10306000B0930202BF91AF919F918F910F900FBECD
:103070000F901F90189587E797E79093010880932A
:1030800000089AE088E10FB6F894A8958093600054
:103090000FBE90936000FFCF0E942416811102C0E2
:1030A0000E94C4160E942F168093C9010E943716F1
:1030B00090930402809303020E943316682F70E0FD
:1030C00080E090E00C9497138091CE0180FF0BC0BC
:1030D0006091050185E0689FB001112475956795A1
:1030E000759567952BC081FF09C06091050185E04A
:1030F000689FB00111247595679520C082FF07C0B5
:103100006091050185E0689FB001112417C090917E
:10311000CD019923D1F060910401961788F7209191
:10312000050185E0289F90011124929FA001939FA3
:10313000500D112470E0CA010E94AF216038710562
:1031400040F46115710539F002C065E070E0862F2A
:1031500008958FE7089581E008958091CE0180FF62
:1031600008C06091030170E0759567957595679546
:1031700021C081FF06C06091030170E075956795DD
:1031800019C082FF04C06091030170E010C09091EB
:10319000CD019923C1F0609102019617A0F78091AB
:1031A0000301899FC001112470E00E94AF216038A3
:1031B000710528F46115710521F0862F08958FE7B8
:1031C000089581E0089561E070E0F4CF803F21F43C
:1031D0000E946418819504C0813F29F40E946418FC
:1031E0008093D2010895823F21F40E946418819552
:1031F00004C0833F29F40E9464188093D10108958C
:10320000893F19F40E94AD1805C08A3F31F40E942D
:10321000AD1881958093D30108958B3F21F40E94CE
:10322000AD18819504C08C3F29F40E94AD1880939D
:10323000D4010895843F21F48091D001816017C0AA
:10324000853F21F48091D001826011C0863F21F436
:103250008091D00184600BC0873F21F48091D00120
:10326000886005C0883F31F48091D00180618093EF
:10327000D00108958D3F21F48091CE0181600BC073
:103280008E3F21F48091CE01826005C08F3F29F4EA
:103290008091CE0184608093CE010895803F39F4FF
:1032A0008091D20187FF6CC01092D20169C0813F2A
:1032B00029F48091D2011816BCF362C09091D1011B
:1032C000823F29F497FF5CC01092D10159C0833F1F
:1032D00019F41916CCF354C0893F41F48091D301FD
:1032E00018160CF04DC01092D3014AC08A3F29F441
:1032F0008091D30187FF44C0F6CF8B3F39F4809192
:10330000D40187FF3DC01092D4013AC08C3F29F40C
:103310008091D4011816BCF333C0843F21F480910E
:10332000D0018E7F17C0853F21F48091D0018D7F21
:1033300011C0863F21F48091D0018B7F0BC0873F65
:1033400021F48091D001877F05C0883F31F48091BE
:10335000D0018F7E8093D00113C08D3F21F48091E6
:10336000CE018E7F0BC08E3F21F48091CE018D7FE8
:1033700005C08F3F29F48091CE018B7F8093CE01D1
:103380008091D10181110EC08091D20181110AC0BA
:103390008091D301811106C08091D401811102C0B6
:1033A0001092CD0108958FEC91E00E945D0A0E9479
:1033B000DF179093CC018093CB0108951F93CF9397
:1033C000DF938091CB019091CC010E94EB17AC016F
:1033D0009091CD01992321F02091060130E006C0A3
:1033E000209107018AE0289F90011124421753077A
:1033F00008F47BC08091D101C091D201D091D3015A
:103400001091D401811107C0C1116BC0D11169C0E5
:10341000111167C06AC09F3F19F09F5F9093CD0163
:10342000181624F40E9464188093D1018091D10170
:1034300087FF05C00E94641881958093D1011C16F6
:1034400024F40E9464188093D2018091D20187FFF6
:1034500005C00E94641881958093D2013091D101FA
:103460003323E1F02091D2012223C1F045EB340354
:10347000C0011124892F990F990B009709F481E05D
:103480008093D10135EB2303C0011124892F990FBB
:10349000990B009709F481E08093D2011D1624F462
:1034A0000E94AD188093D3018091D30187FF05C09E
:1034B0000E94AD1881958093D301111624F40E94C7
:1034C000AD188093D4018091D40187FF05C00E947C
:1034D000AD1881958093D401DF91CF911F910C9409
:1034E000D3199F3F09F099CFA1CFDF91CF911F91C1
:1034F0000895EFECF1E086E0DF011D928A95E9F78F
:103500001092CD011092CE0108958091F501089599
:103510000F931F93CF93DF9300D01F92CDB7DEB7E9
:103520008C010E94F61C823011F0843021F584E079
:1035300089831B830A8382E08093E9008FEF909157
:10354000E800815095FD06C095ED9A95F1F70000D1
:103550008111F5CF8091E80085FF0DC040E050E07B
:1035600063E070E0CE0101960E94131D8091E80097
:103570008E778093E8000F900F900F90DF91CF919E
:103580001F910F910895CF93DF9300D01F92CDB775
:10359000DEB720910902243031F523E029838058D9
:1035A00091099B838A8382E08093E9008FEF909159
:1035B000E800815095FD06C095ED9A95F1F7000061
:1035C0008111F5CF8091E80085FF0DC040E050E00B
:1035D00063E070E0CE0101960E94131D8091E80027
:1035E0008E778093E8000F900F900F90DF91CF912E
:1035F0000895CF93DF93EC010E94F61C823011F006
:103600008430F9F482E08093E9009FEF8091E80034
:10361000915085FD06C085ED8A95F1F70000911166
:10362000F5CF8091E80085FF0CC040E050E066E0F7
:1036300070E0CE010E94131D8091E8008E77809388
:10364000E800DF91CF910895CF93DF93EC010E94C2
:10365000F61C823011F08430D9F580911201882354
:1036600039F08091030287FF03C060E282E002C06C
:1036700068E081E08093E9008FEF9091E80081504D
:1036800095FD06C095ED9A95F1F700008111F5CFF3
:103690008091E80085FF1CC080911201811105C056
:1036A00040E050E068E070E003C070E040E050E0CF
:1036B000CE010E94131D8091E8008E778093E80070
:1036C00080E2FE01A5EDB1E001900D928A95E1F74F
:1036D000DF91CF91089580910802811109C00E9465
:1036E000A81E0E94051F8091E20084608093E20082
:1036F0000895109208020895089508950C94A5174E
:1037000042E061EC81E00E94221E42E261EC82E034
:103710000C94221E80910B02833009F460C030F4B7
:10372000813071F0823009F499C008958A3009F42B
:1037300085C08B3009F46BC0893009F0A7C020C068
:1037400080910A02813A09F0A1C08091E800877F48
:103750008093E80080910E0290910F02892B21F452
:1037600060E285ED91E003C060E080E090E070E011
:103770000E945E1D8091E8008B778093E800089599
:1037800080910A02813209F081C080910E029091ED
:103790000F02029708F07AC08091E800877F80933B
:1037A000E8008091E80082FD05C080910902811146
:1037B000F8CF6CC02091F3008091F20090E0922B42
:1037C000029729F48091F1008B7F813021F4809160
:1037D000F1008093F5018091E8008B7753C08091D0
:1037E0000A02813A09F052C080910E0290910F02B4
:1037F000892B09F04BC08091E800877F8093E80017
:103800008091E80080FFFCCF8091120136C080914A
:103810000A028132D9F580910E0290910F02892B14
:10382000A9F58091E800877F8093E8000E94571EE9
:1038300080910C02809312010C94020D80910A0277
:10384000813221F58091E800877F8093E8000E9413
:10385000571E80910D028093F601089580910A020F
:10386000813AA1F48091E800877F8093E8008091FD
:10387000E80080FFFCCF8091F6018093F1008091F9
:10388000E8008E778093E8000C94571E089584B763
:10389000877F84BF0FB6F894A895809160008861F7
:1038A00080936000109260000FBE80E880936100FA
:1038B000109261000E94A50A0E94A81E0E94051F86
:1038C0008091E20084608093E20078940E949421C9
:1038D0000E94AD0A88E091E00E94320A80910902BC
:1038E000853069F40E945B17809107028823B1F349
:1038F0000E948D17882391F30E94FD1CEFCF0E9438
:10390000B50AECCF0C94841C292F332723303105C2
:10391000C9F064F42130310581F02230310509F01D
:103920004CC08BE390E02AEB32E04BC021323105F2
:1039300021F12232310589F140C082E190E025EF8A
:1039400032E03FC099278130910571F02CF4892B2A
:10395000A1F5E6EBF2E00DC08230910541F003974E
:1039600061F5ECE8F2E005C0E6EAF2E002C0E2E967
:10397000F2E0849190E09F0124C06115710541F04F
:1039800061307105D1F489E090E025EE32E019C094
:1039900089E090E02CEC32E014C06115710541F033
:1039A0006130710551F480EC90E027E033E009C00C
:1039B00080E490E027EC33E004C080E090E020E079
:1039C00030E0FA013183208308950895CF93C82F02
:1039D0000E94E51CC093F701CF91089580910902E0
:1039E000843011F081E0089582E008958091F7011C
:1039F000811102C00C94EE1C089580E189BD82E122
:103A000089BD09B400FEFDCF8091D8008F7D8093E1
:103A1000D8008091E00082608093E0008091E00017
:103A200081FDFCCF0895CF92DF92EF92FF920F932A
:103A30001F93CF93DF93EC018B016A010E94761EE6
:103A4000811133C0C114D10439F0F6018081918114
:103A5000081B190BC80FD91FE12CF12C01151105FA
:103A600019F18091E80085FD16C08091E8008E77FD
:103A70008093E800C114D10449F0F601808191815E
:103A8000E80EF91EF182E08285E00FC00E94761EEA
:103A9000882321F30AC089918093F1000150110914
:103AA000FFEFEF1AFF0ADACF80E0DF91CF911F918D
:103AB0000F91FF90EF90DF90CF900895209110022A
:103AC000309111022617370748F06115710539F456
:103AD0002091E8002E772093E80001C0B90140E072
:103AE00061157105A9F120910902222309F443C04F
:103AF000253009F442C02091E80023FD40C0209108
:103B0000E80022FD32C02091E80020FFE9CF40917B
:103B1000F3002091F20030E0342BFC01CF0161155D
:103B2000710559F02830310540F481918093F100FE
:103B3000615071092F5F3F4FF1CF41E028303105CF
:103B400009F040E02091E8002E772093E800C8CFEC
:103B50004111C9CF0AC080910902882361F08530E4
:103B600061F08091E80083FD0AC08091E80082FF47
:103B7000F2CF80E0089582E0089583E0089581E027
:103B8000089520911002309111022617370748F04E
:103B90006115710539F42091E8002E772093E80033
:103BA00001C0B901FC0120E06115710591F180911E
:103BB0000902882309F440C0853009F43FC0809190
:103BC000E80083FD3DC08091E80082FD2FC0809118
:103BD000E80080FFE9CF2091F3008091F20090E0AF
:103BE000922B6115710559F08830910540F42491AC
:103BF0002093F1003196615071090196F2CF21E0D6
:103C0000089709F020E08091E8008E778093E80023
:103C1000CBCF2111CCCF0AC080910902882361F05B
:103C2000853061F08091E80083FD0AC08091E80052
:103C300082FFF2CF80E0089582E0089583E0089546
:103C400081E00895982F973058F59093E9009817E0
:103C500039F07091EC002091ED005091F00003C01C
:103C6000242F762F50E021FF19C03091EB003E7FCA
:103C70003093EB003091ED003D7F3093ED003091BB
:103C8000EB0031603093EB007093EC002093ED007B
:103C90005093F0002091EE0027FF07C09F5FD3CF25
:103CA0008F708093E90081E0089580E0089580910D
:103CB0000A0287FF11C08091E80082FD05C0809153
:103CC00009028111F8CF11C08091E8008B770BC0F9
:103CD00080910902882349F08091E80080FFF8CFA5
:103CE0008091E8008E778093E80008952091E400A9
:103CF0003091E50095E64091EC00842F817040FF03
:103D000022C08091E80080FD1CC0809109028823B8
:103D100091F0853091F08091EB0085FD10C04091CD
:103D2000E4005091E5004217530729F39A0191509E
:103D300011F784E0089582E0089583E0089581E01A
:103D4000089580E008954091E80042FFDECF089595
:103D50000E94161F0E941E1FE0EEF0E0808181602D
:103D60008083E8EDF0E080818F77808319BCA7ED38
:103D7000B0E08C918E7F8C9380818F7E80831092B7
:103D8000080208950F931F93CF93DF930E94161F8D
:103D90000E941E1FC8EDD0E088818F7788838881BC
:103DA0008068888388818F7D888319BC109209027E
:103DB00010920502109207021092060200EE10E027
:103DC000F80180818B7F808388818160888342E0D5
:103DD00060E080E00E94221EE1EEF0E080818E7FB4
:103DE0008083E2EEF0E08081816080838081886062
:103DF0008083F80180818E7F8083888180618883C1
:103E0000DF91CF911F910F910895E8EDF0E080814F
:103E10008F7E8083E7EDF0E080818160808384E0A5
:103E200082BF81E0809308020C94C21EE8EDF0E0AE
:103E300080818E7F80831092E20008951092DA00D4
:103E40001092E10008951F920F920FB60F92112465
:103E50002F933F934F935F936F937F938F939F9392
:103E6000AF93BF93EF93FF938091E10082FF0BC06C
:103E70008091E20082FF07C08091E1008B7F8093F8
:103E8000E1000E9493218091DA0080FF1FC08091A1
:103E9000D80080FF1BC08091DA008E7F8093DA000B
:103EA0008091D90080FF0DC080E189BD82E189BD8C
:103EB00009B400FEFDCF81E0809309020E946B1BD4
:103EC00005C019BC109209020E94791B8091E10083
:103ED00080FF19C08091E20080FF15C08091E20050
:103EE0008E7F8093E2008091E20080618093E20007
:103EF0008091D80080628093D80019BC85E08093BF
:103F000009020E947D1B8091E10084FF30C08091F6
:103F1000E20084FF2CC080E189BD82E189BD09B443
:103F200000FEFDCF8091D8008F7D8093D8008091D6
:103F3000E1008F7E8093E1008091E2008F7E80938C
:103F4000E2008091E20081608093E20080910502AE
:103F5000882311F084E007C08091E30087FD02C050
:103F600081E001C083E0809309020E947E1B809162
:103F7000E10083FF29C08091E20083FF25C080918A
:103F8000E100877F8093E10082E080930902109234
:103F900005028091E1008E7F8093E1008091E20034
:103FA0008E7F8093E2008091E20080618093E20046
:103FB00042E060E080E00E94221E8091F000886074
:103FC0008093F0000E947C1BFF91EF91BF91AF9115
:103FD0009F918F917F916F915F914F913F912F9121
:103FE0000F900FBE0F901F9018951F920F920FB653
:103FF0000F9211242F933F934F935F936F937F936F
:104000008F939F93AF93BF93CF93DF93EF93FF93E0
:10401000C091E900CF708091EC00D82FD17080FD65
:10402000D0E81092E9008091F000877F8093F00043
:1040300078940E9439201092E9008091F000886005
:104040008093F000CD2BCF70C093E900FF91EF91EA
:10405000DF91CF91BF91AF919F918F917F916F91A0
:104060005F914F913F912F910F900FBE0F901F9036
:1040700018951F93CF93DF93CDB7DEB7AA970FB6EE
:10408000F894DEBF0FBECDBFEAE0F2E088E08E0F0D
:104090009091F10091938E13FBCF0E948A1B809127
:1040A000E80083FF28C180910A0290910B02492FFA
:1040B00050E04A30510508F01EC1FA01EC58FF4F9C
:1040C0000C94C321803821F0823809F014C108C053
:1040D0008091060290910702992389F082600FC0B7
:1040E00080910E028F70873008F005C18093E9003F
:1040F0008091EB0085FB882780F91092E900909170
:10410000E800977F9093E8008093F1001092F1000F
:10411000D0C0282F2D7F09F0EEC0882319F08230FF
:1041200061F0E9C080910C02813009F0E4C0933065
:1041300009F080E0809307022EC080910C0281116B
:104140002AC080910E028F702FEF280F263008F0C2
:10415000D2C08093E9002091EB0020FF1CC0933077
:1041600021F48091EB00806214C09091EB0090618B
:104170009093EB0021E030E0A90102C0440F551FED
:104180008A95E2F74093EA001092EA008091EB00F2
:1041900088608093EB001092E9008091E800877FAF
:1041A0008093E8000E94571EA6C08111A4C0109100
:1041B0000C021F778091E3008078812B8093E300CD
:1041C0008091E800877F8093E8000E94571E8091CD
:1041D000E80080FFFCCF8091E30080688093E300DB
:1041E000111102C082E001C083E08093090283C004
:1041F0008058823008F07FC080910C0290910D02AF
:104200008C3D53E0950779F583E08A838AE28983C0
:104210004FB7F894DE01139620E03EE051E2E32F21
:10422000F0E050935700E49120FF03C0E295EF7057
:104230003F5FEF708E2F90E0EA3010F0C79601C01C
:10424000C0968D939D932F5F243149F74FBF809186
:10425000E800877F8093E8006AE270E0CE01019673
:104260000E945E1D15C060910E0270910F02AE019A
:104270004F5F5F4F0E94821CBC01892BE1F190913E
:10428000E800977F9093E80089819A810E94C11D80
:104290008091E8008B778093E8002DC0803859F535
:1042A0008091E800877F8093E800809105028093E9
:1042B000F1008091E8008E7773CF81111CC090913E
:1042C0000C029230C0F48091E800877F8093E80070
:1042D000909305020E94571E80910502811106C02D
:1042E0008091E30087FD02C081E001C084E08093FB
:1042F00009020E94801B8091E80083FF0AC0809120
:10430000E800877F8093E8008091EB0080628093D3
:10431000EB00AA960FB6F894DEBF0FBECDBFDF91BB
:10432000CF911F9108950895CF938091090288231A
:10433000A1F0C091E900CF709091EC00892F8170BD
:1043400090FD80E8C82B1092E9008091E80083FD81
:104350000E943920CF70C093E900CF91089597FB58
:10436000072E16F4009407D077FD09D00E94C921CA
:1043700007FC05D03EF4909581959F4F0895709568
:1043800061957F4F0895EE0FFF1F0590F491E02D8A
:104390000994AA1BBB1B51E107C0AA1FBB1FA6178C
:1043A000B70710F0A61BB70B881F991F5A95A9F7DE
:1043B00080959095BC01CD010895F999FECF92BDED
:1043C00081BDF89A992780B50895A8E1B0E042E050
:1043D00050E00C941122262FF999FECF92BD81BD99
:1043E000F89A019700B4021639F01FBA20BD0FB633
:1043F000F894FA9AF99A0FBE08950396272F0E940F
:10440000EC210E94EB21252F0E94EC21242F0C94FB
:10441000EC210196272F0E94EC210C94EB21DC016A
:10442000CB01FC01F999FECF06C0F2BDE1BDF89ABF
:10443000319600B40D9241505040B8F70895F89469
:02444000FFCFAC
:10444200A6012808140A321E851A241BF91AC31A57
:10445200881A01F4F53534C69766949091F6333292
:02446200360022
:00000001FF
